:100000004CC000005AC0000058C0000056C000009C
:1000100054C0000052C0000050C000004EC000009C
:100020004CC000004AC0000048C0000046C00000AC
:1000300044C0000042C0000040C000003EC00000BC
:100040003CC000003AC0000038C0000036C00000CC
:1000500034C0000032C0000030C000002EC00000DC
:100060002CC000002AC0000028C0000026C00000EC
:1000700024C0000022C0000020C000001EC00000FC
:100080001CC000001AC0000018C0000069006D000C
:1000900071008A008E009200960011241FBECFEFDF
:1000A000D0E4DEBFCDBF21E0A0E0B1E001C01D92F1
:1000B000A130B207E1F761D074C0A2CF2091000156
:1000C000822F90E087309105A8F5FC01EA5BFF4F95
:1000D0005FC081E0809300013CC082E0809300011A
:1000E000089580B1803809F423E02093000180B1A5
:1000F000843009F424E02093000180B1823009F4B7
:1001000025E02093000180B1813009F426E020939E
:10011000000110C082E080930001089582E0809386
:100120000001089582E080930001089582E08093A9
:100130000001089580910001843091F028F481300D
:1001400041F0833049F00895853069F0863091F0B0
:10015000089515B818B8089582E088B928980895C8
:1001600083E088B9089588B1833009F4289A84E03F
:1001700088B9089585E088B9089511B88FEF82B9DC
:1001800084B915B887B918B81092000197DFFECF6F
:10019000EE0FFF1F0024001C0BBE0790F691E02D10
:0601A0000994F894FFCF62
:00000001FF
