:1000000045C0000060C000005EC000005CC0000091
:100010005AC0000058C0000056C0000054C0000084
:1000200052C0000050C000004EC000004CC0000094
:100030004AC000006DC0000046C0000044C000007F
:1000400042C0000040C000003EC000003CC00000B4
:100050003AC0000038C0000036C0000034C00000C4
:1000600032C0000030C000002EC000002CC00000D4
:100070002AC0000028C0000026C0000024C00000E4
:1000800022C0000020C000001EC0000011241FBEBE
:10009000CFEFD0E4DEBFCDBF11E0A0E0B1E0ECEBEC
:1000A000F9E000E00BBF02C007900D92A430B10749
:1000B000D9F721E0A4E0B1E001C01D92A331B2075D
:1000C000E1F7C6D279C49CCF8BE0809381008DE7A5
:1000D00090E0909389008093880082E080936F0085
:1000E000109285001092840080910001909101018E
:1000F000A0910201B091030180930801909309013E
:10010000A0930A01B0930B018FB780688FBF089549
:100110001F920F920FB60F9211248F939F93AF935C
:10012000BF938091080190910901A0910A01B091BB
:100130000B010197A109B10980930801909309016E
:10014000A0930A01B0930B01892B8A2B8B2B99F476
:1001500081E080930C018091000190910101A091B8
:100160000201B09103018093080190930901A093CB
:100170000A01B0930B01BF91AF919F918F910F90A6
:100180000FBE0F901F9018956093000170930101AE
:100190008093020190930301609308017093090119
:1001A00080930A0190930B010895CF92DF92EF9212
:1001B000FF926B017C019B01AC0160910401709185
:1001C000050180910601909107017DD2882309F4F1
:1001D00052C020E030E0A901C701B60174D28111FC
:1001E00006C0E1E9F0E080818870808305C0E1E924
:1001F000F0E080818360808328E539E344E75FE3B2
:10020000C701B60160D288233CF48FEF9FEF909333
:1002100099008093980023C020E034E244EF56E434
:10022000C701B60162D318162CF4109299001092EF
:10023000980015C020E030E040E053E4C701B6016B
:1002400058D39B01AC0160E074E284EF9AE43FD2A2
:10025000A6D2615071097093990060939800109232
:10026000950010929400C0920401D0920501E09292
:100270000601F0920701FF90EF90DF90CF90089574
:1002800080E4809390008BE08093910060E070E0C8
:10029000CB018BCF08951092900010929100089599
:1002A000CF92DF92EF92FF92C0900D01D0900E019D
:1002B000E0900F01F090100124EA30ED42E853E4A1
:1002C000C701B60100D281110DC08BE794EDA2E900
:1002D000B3E480930D0190930E01A0930F01B093AE
:1002E000100183C02BE734ED42E953E4C701B601A6
:1002F000EAD181110DC084EA90EDA4EAB3E48093C1
:100300000D0190930E01A0930F01B09310016DC0E9
:1003100024EA30ED44EA53E4C701B601D4D1811197
:100320000DC081E79DE9AEEAB3E480930D0190939F
:100330000E01A0930F01B093100157C021E73DE9D2
:100340004EEA53E4C701B601BED181110DC080E071
:1003500090E0A4ECB3E480930D0190930E01A09380
:100360000F01B093100141C020E030E044EC53E4B1
:10037000C701B601A8D181110DC080E090E0ACEDBD
:10038000B3E480930D0190930E01A0930F01B093FD
:1003900010012BC020E030E04CED53E4C701B60162
:1003A00092D181110DC084EA90EFA6EFB3E480935F
:1003B0000D0190930E01A0930F01B093100115C091
:1003C00024EA30EF46EF53E4C701B6017CD1811136
:1003D0000CC080E090EDA2E0B4E480930D01909316
:1003E0000E01A0930F01B0931001FF90EF90DF90EA
:1003F000CF900895CF92DF92EF92FF92C0900D01BF
:10040000D0900E01E0900F01F090100120E030ED4F
:1004100042E054E4C701B60156D181110DC084EA0F
:1004200090EFA6EFB3E480930D0190930E01A0939B
:100430000F01B093100183C024EA30EF46EF53E47C
:10044000C701B60140D181110DC080E090E0ACED54
:10045000B3E480930D0190930E01A0930F01B0932C
:1004600010016DC020E030E04CED53E4C701B6014F
:100470002AD181110DC080E090E0A4ECB3E4809318
:100480000D0190930E01A0930F01B093100157C07E
:1004900020E030E044EC53E4C701B60114D18111EF
:1004A0000DC081E79DE9AEEAB3E480930D0190931E
:1004B0000E01A0930F01B093100141C021E73DE967
:1004C0004EEA53E4C701B601FED081110DC084EAA3
:1004D00090EDA4EAB3E480930D0190930E01A093F4
:1004E0000F01B09310012BC024EA30ED44EA53E42D
:1004F000C701B601E8D081110DC08BE794EDA2E9E8
:10050000B3E480930D0190930E01A0930F01B0937B
:10051000100115C02BE734ED42E953E4C701B601E1
:10052000D2D081110CC084EA90EDA2E8B3E48093AC
:100530000D0190930E01A0930F01B0931001FF9055
:10054000EF90DF90CF90089580B1982F91708091B7
:1005500011018230A9F028F4882341F0813051F054
:1005600021C08330A9F08430C9F01CC081E08093A1
:1005700011010895911101C082E08093110112C010
:10058000992311F083E001C084E0809311010AC037
:10059000911101C084E08093110104C081E0809337
:1005A0001101089580911101823019F0843091F089
:1005B000089566DE84EA90EDA2E8B3E480930D012D
:1005C00090930E01A0930F01B0931001BC01CD01D7
:1005D000ECCD089560CE089520B190B180911201C4
:1005E000813051F028F0823071F0833081F013C0F7
:1005F00081E080931201089521FF82E092FF83E061
:100600008093120108C081E080931201089581E077
:1006100080931201089580911201823019F0833085
:1006200061F008953DDE60910D0170910E018091A1
:100630000F0190911001B9CD0895DCDE60910D019C
:1006400070910E0180910F0190911001AECD08952F
:1006500011B88FEF82B984B915B8109212011092B7
:10066000110164E670E080E090E08EDD2DDD812CEC
:10067000912C5401C12CD12C76010EC065DF812C48
:10068000912C540188ECC816D104E104F10420F047
:10069000A3DFC12CD12C760180910C018823E1F3DA
:1006A00010920C0184E6880E911CA11CB11C84E6FA
:1006B000C80ED11CE11CF11C88EC88169104A10421
:1006C000B10400F3DBCF9CD008F481E008950CD096
:1006D000D2C0CAD040F0C1D030F021F45F3F19F051
:1006E000B3C05111FCC0B6C0D7D098F39923C9F359
:1006F0005523B1F3951B550BBB27AA276217730728
:10070000840738F09F5F5F4F220F331F441FAA1FDB
:10071000A9F333D00E2E3AF0E0E830D0915050409B
:10072000E695001CCAF729D0FE2F27D0660F771F49
:10073000881FBB1F261737074807AB07B0E809F02B
:10074000BB0B802DBF01FF2793585F4F2AF09E3FC0
:10075000510568F079C0C3C05F3FECF3983EDCF30D
:10076000869577956795B795F7959F5FC9F7880F39
:10077000911D9695879597F90895E1E0660F771F8B
:10078000881FBB1F621773078407BA0720F0621B1C
:10079000730B840BBA0BEE1F88F7E095089504D015
:1007A0006894B1119CC008957FD088F09F5790F055
:1007B000B92F9927B751A0F0D1F0660F771F881F86
:1007C000991F1AF0BA95C9F712C0B13081F086D0DE
:1007D000B1E0089583C0672F782F8827B85F39F07C
:1007E000B93FCCF3869577956795B395D9F73EF4E5
:1007F00090958095709561957F4F8F4F9F4F08958D
:10080000990F0008550FAA0BE0E8FEEF1616170621
:10081000E807F907C0F012161306E407F50798F089
:10082000621B730B840B950B39F40A2661F0232BA2
:10083000242B252B21F408950A2609F4A140A6951E
:100840008FEF811D811D089597F99F6780E870E003
:1008500060E008959FEF80EC089500240A94161636
:10086000170618060906089500240A94121613069E
:10087000140605060895092E0394000C11F488232C
:1008800052F0BB0F40F4BF2B11F460FF04C06F5F48
:100890007F4F8F4F9F4F089557FD9058440F551F1E
:1008A00059F05F3F71F04795880F97FB991F61F0F2
:1008B0009F3F79F087950895121613061406551F69
:1008C000F2CF4695F1DF08C0161617061806991FD5
:1008D000F1CF86957105610508940895E894BB27CA
:1008E00066277727CB0197F908958ADF08F48FEF01
:1008F00008950BD0C0CFB1DF28F0B6DF18F09523F4
:1009000009F0A2CFA7CF1124EACFC6DFA0F3959FAD
:10091000D1F3950F50E0551F629FF001729FBB27E6
:10092000F00DB11D639FAA27F00DB11DAA1F649F92
:100930006627B00DA11D661F829F2227B00DA11D45
:10094000621F739FB00DA11D621F839FA00D611DCB
:10095000221F749F3327A00D611D231F849F600DEC
:10096000211D822F762F6A2F11249F5750408AF025
:10097000E1F088234AF0EE0FFF1FBB1F661F771FB1
:10098000881F91505040A9F79E3F510570F05CCFF1
:10099000A6CF5F3FECF3983EDCF38695779567959D
:1009A000B795F795E7959F5FC1F7FE2B880F911DCF
:0C09B0009695879597F90895F894FFCF6D
:0409BC000100000036
:00000001FF
