:1000000060C000007BC0000079C0000077C0000025
:1000100075C0000073C0000071C000006FC0000018
:100020006DC000006BC0000069C0000067C0000028
:1000300065C00000E0C0000061C000005FC00000BB
:100040005DC000005BC0000059C0000057C0000048
:1000500055C0000053C0000051C000004FC0000058
:100060004DC000004BC0000049C0000047C0000068
:1000700045C0000043C0000041C000003FC0000078
:100080003DC000003BC0000039C0000061016501B7
:1000900069016D017601820185018C010C03100359
:1000A000140318032E0344035A0363036F037203FC
:1000B0008603D503E6033C046F04A304EA04150693
:1000C000260611241FBECFEFD0E4DEBFCDBF11E066
:1000D000A0E0B1E0ECE4FFE000E00BBF02C007905D
:1000E0000D92A83AB107D9F721E0A8EAB1E001C022
:1000F0001D92AB3BB207E1F73ED626C781CF18165B
:1001000019065CF00895000021503109E1F74F5FB6
:100110005F4F8417950719F4089540E050E027E0F9
:1001200033E0F1CF5E9888B95F9A00005F9882E073
:1001300090E0E5CF089581E0F5CF0895813118F47E
:100140008158F0CF08958155EDCF089584E690E071
:10015000D6DF88E3E7DF86E0E5DF8FE0E3DF81E0FD
:10016000E1DF8AE090E0CBCF08955E9A88B95F9A8C
:1001700000005F9881E090E0C2CF08950F931F9335
:10018000CF93DF93182FEB01D6DF8881882351F0BE
:1001900001E0010F812FD2DF8991E7DF102F8881E5
:1001A0008111F6CFDF91CF911F910F9108958BE0D0
:1001B000809381008DE790E0909389008093880080
:1001C00082E080936F0010928500109284008091ED
:1001D000080190910901A0910A01B0910B0180934F
:1001E000A8019093A901A093AA01B093AB018FB786
:1001F00080688FBF08951F920F920FB60F9211243F
:100200008F939F93AF93BF938091A8019091A90181
:10021000A091AA01B091AB010197A109B109809306
:10022000A8019093A901A093AA01B093AB01892BD7
:100230008A2B8B2B99F481E08093AC01809108018B
:1002400090910901A0910A01B0910B018093A8013E
:100250009093A901A093AA01B093AB01BF91AF9174
:100260009F918F910F900FBE0F901F9018956093E4
:1002700008017093090180930A0190930B01609328
:10028000A8017093A9018093AA019093AB010895EE
:100290000F931F93CF93DF9389B1282F2170A9B1BA
:1002A00089B190E080959095847099273091BA013A
:1002B000432F50E04830510558F5FA01EA5BFF4FF3
:1002C00088C581E08093BA013CC082E08093BA0186
:1002D00054C083E08093BA015DC0211101C034E0B5
:1002E000892B09F035E03093BA0116C0892B09F04B
:1002F00035E08A2F90E08095909581FD36E030932F
:10030000BA010AC01092BA0146C11092BA0143C1A3
:1003100083E08093BA013EC08091BA01833009F432
:1003200039C030F4813069F0823009F034C125C021
:10033000853009F424C108F476C0863009F426C15A
:100340002AC160ED77E080E090E091DF30DF87EF59
:100350008093070188E0809306011092B401109207
:10036000B3018CE89AE09093B6018093B5011092A6
:10037000B201E1DE81E0E2DE0EC164E670E080E021
:1003800090E075DF14DF8FE78093070181E08093B1
:10039000060101C1D0DE60E271E081E0EFDE81E3C1
:1003A000E4DE80E3E2DE80E3E0DE809107018E3F61
:1003B00091F480910601803839F48FE7809307012A
:1003C00081E0809306010BC09FE790930701880F9F
:1003D0008093060104C08695806880930701809110
:1003E000B201882359F08091B3019091B4018C59E6
:1003F0009F4F9093B4018093B301CDC082B18830F8
:1004000039F485B1873F21F481E08093B201C3C004
:100410008091B5019091B601845691099093B601EF
:100420008093B501B8C082B1883019F485B1873F97
:1004300011F0211105C068E271E081E09FDEABC0E0
:10044000C091B301D091B401209709F44AC0C83ECD
:1004500083E0D80728F069E371E081E08FDE9BC07C
:10046000C436D10508F497C06BE571E081E086DE03
:100470009E013695279536952795ABE7B4E1B2D422
:10048000EC01D695C7958C2F805D6FDE24E62C9FFE
:10049000C0012D9F900D11240091B3011091B40162
:1004A000081B190B9801ADECBCEC9CD4EC01D69563
:1004B000C795D695C795D695C7958C2F805D55DE87
:1004C000CE01880F991FCC0FDD1FCC0FDD1FCC0F85
:1004D000DD1FC80FD91FC8018C1B9D0B805D45DE39
:1004E0005AC0C091B501D091B601C83E83E0D8078B
:1004F00028F06DE671E081E041DE4DC0C436D105E3
:1005000008F449C06DE871E081E038DE9E0136955F
:10051000279536952795ABE7B4E164D4EC01D695E1
:10052000C7958C2F805D21DE24E62C9FC0012D9F76
:10053000900D11240091B5011091B601081B190B03
:100540009801ADECBCEC4ED4EC01D695C795D69590
:10055000C795D695C7958C2F805D07DECE01880F95
:10056000991FCC0FDD1FCC0FDD1FCC0FDD1FC80F77
:10057000D91FC8018C1B9D0B805DF7DD0CC08FE778
:100580008093070181E08093060105C081E080939C
:10059000B9011092B7018091060182B980910701DB
:1005A00085B9DF91CF911F910F910895EF92FF923E
:1005B0000F931F93CF93DF93CDB7DEB760970FB63E
:1005C000F894DEBF0FBECDBF89B1382F317019B19D
:1005D00089B190E0809590958470992728E0E0E1BA
:1005E000F1E0DE01119601900D922A95E1F728E0E5
:1005F000E8E1F1E0DE01199601900D922A95E1F70C
:100600002091B801422F50E04A30510508F06DC0EA
:10061000FA01E25BFF4FDDC381E08093B80176C051
:1006200082E08093B801C1C083E08093B801CEC05E
:10063000311101C027E0892B09F028E080910E01DB
:1006400090910F01892B39F480910C0190910D014B
:10065000892B09F424E02093B8014BC0311101C06B
:1006600027E0892B09F028E080910E0190910F017D
:10067000079739F480910C0190910D01079709F4C7
:1006800025E02093B80135C0311101C027E0892B46
:1006900009F028E080910E0190910F01892B39F427
:1006A00080910C0190910D01892B09F426E0209393
:1006B000B8011FC0311101C027E0892B09F028E0E3
:1006C0002093B80116C0892B09F028E0812F90E013
:1006D0008095909581FD29E02093B8010AC0109281
:1006E000B801B9C21092B801B6C283E08093B801D4
:1006F0006DC0E091B8018E2F90E0FC013197E93098
:10070000F10508F0A8C2E85AFF4F63C360ED77E037
:1007100080E090E0ACDD4BDDBBD38770907899230F
:1007200024F40197886F9F6F019690930F01809337
:100730000E01AED387709078992324F40197886FC7
:100740009F6F019690930D0180930C0120910E01F3
:1007500030910F013093B0012093AF019093AE011F
:100760008093AD011092B4011092B30168EA7DEF5D
:10077000269FA001279F500D369F500D11244B58E6
:100780005D4E65EB8C0160039001619F300D11247B
:10079000CA01820F931F9093B6018093B501109206
:1007A000B101C9DC81E0CADC56C26BE470E080E0D4
:1007B00090E05DDDFCDC87E090E090930F0180939A
:1007C0000E0190930D0180930C0145C2B4DC60E2F0
:1007D00071E081E0D3DC87E3C8DC85E3C6DC80918F
:1007E0000C0190910D01009781F480910E01909180
:1007F0000F01019790930F0180930E0187E090E025
:1008000090930D0180930C0105C0019790930D0109
:1008100080930C018091B101882359F08091B3013C
:100820009091B401855B9F4F9093B4018093B30185
:1008300012C292B1E091AD01F091AE01EC0FFD1F3B
:10084000818598130EC095B1E091AF01F091B00190
:10085000EC0FFD1F8181981304C081E08093B101EA
:10086000FAC18091B5019091B6018B549109909392
:10087000B6018093B501EFC167E370E080E090E0DE
:10088000F6DC95DC58DC60E271E081E077DC85E342
:100890006CDC85E36ADC80910C0190910D0187305E
:1008A000910571F480910E0190910F010196909342
:1008B0000F0180930E0110920D0110920C0105C0E2
:1008C000019690930D0180930C018091B30190915A
:1008D000B401C7969093B4018093B301BCC16DE29B
:1008E00070E080E090E0C3DC62DC25DC60E271E077
:1008F00081E044DC84E339DC85E337DC80910E0160
:1009000090910F01009781F480910C0190910D015D
:10091000019790930D0180930C0187E090E09093F4
:100920000F0180930E0105C0019790930F018093F2
:100930000E018091B3019091B4018D969093B40112
:100940008093B30188C169E170E080E090E08FDCC2
:100950002EDCF1DB60E271E081E010DC82E305DC9B
:1009600085E303DC20910C0130910D012730310526
:1009700081F480910E0190910F0187309105D9F497
:1009800010920F0110920E0110920D0110920C01A5
:1009900017C080910E0190910F018730910559F495
:1009A0002F5F3F4F30930D0120930C0110920F01E8
:1009B00010920E0105C0019690930F0180930E01D5
:1009C0008091B3019091B40149969093B4018093C2
:1009D000B30141C142B18091AD019091AE01FE01E0
:1009E000E80FF91F2185421307C025B1FE01E80F6A
:1009F000F91F8181281711F0311105C068E271E0FB
:100A000081E0BCDB28C10091B3011091B401011554
:100A1000110509F483C0083E83E0180728F069E354
:100A200071E081E0ABDB17C10436110508F43DC06D
:100A30006BE571E081E0A2DB98013695279536954C
:100A40002795ABE7B4E1CED18C011695079580E3ED
:100A5000800F8BDB24E6209FC001219F900D112485
:100A6000E090B301F090B401E81AF90A9701ADECF7
:100A7000BCECB8D18C01169507951695079516957F
:100A8000079580E3800F71DBC801880F991F000F65
:100A9000111F000F111F000F111F080F191FC70191
:100AA000801B910B805D61DBD6C06BE571E081E05E
:100AB00065DB98013695279536952795ABE7B4E128
:100AC00091D19695879544E6489F9001499F300DB6
:100AD0001124E090B301F090B401E21AF30A9701F7
:100AE000ADECBCEC7FD18C0116950795169507955A
:100AF0001695079580E3800F38DBC801880F991F92
:100B0000000F111F000F111F000F111F080F191FD9
:100B1000C701801B910B805D28DB9DC00091B50152
:100B20001091B601083E83E0180728F06DE671E0E9
:100B300081E024DB90C00436110508F43DC06DE867
:100B400071E081E01BDB9801369527953695279556
:100B5000ABE7B4E147D18C011695079580E3800F90
:100B600004DB24E6209FC001219F900D1124E0901A
:100B7000B501F090B601E81AF90A9701ADECBCECAA
:100B800031D18C0116950795169507951695079501
:100B900080E3800FEADAC801880F991F000F111F48
:100BA000000F111F000F111F080F191FC701801B15
:100BB000910B805DDADA4FC06DE871E081E0DEDA3A
:100BC00098013695279536952795ABE7B4E10AD17C
:100BD0009695879544E6489F9001499F300D1124D2
:100BE000E090B501F090B601E21AF30A9701ADEC7E
:100BF000BCECF8D08C0116950795169507951695BF
:100C0000079580E3800FB1DAC801880F991F000FA4
:100C1000111F000F111F000F111F080F191FC7010F
:100C2000801B910B805DA1DA16C06BE470E080E060
:100C300090E01DDBBCDA87E090E090930F01809399
:100C40000E0190930D0180930C0105C081E080930B
:100C5000B9011092B701E0910C01F0910D01EC0F78
:100C6000FD1F818582B9E0910E01F0910F01EC0F1B
:100C7000FD1F818185B960960FB6F894DEBF0FBE67
:100C8000CDBFDF91CF911F910F91FF90EF9008950D
:100C900099B149B129B18091B901823099F028F414
:100CA000882341F0813051F024C08330D1F084306A
:100CB000E1F01FC081E08093B9012AC082E08093F7
:100CC000B90134C090FF83E050E04095509541FD5C
:100CD00084E030E02095309522FD85E08093B901D5
:100CE00008C082E08093B90121C082E08093B901FD
:100CF0001DC08091B901833019F128F4813041F091
:100D0000823089F513C0843019F1853049F12BC048
:100D100081E0809305018FE7809304010CDA60EA9B
:100D200071E081E02BDA81E320DA1DC004DA60EAA9
:100D300071E081E023DA80910501805D16DA13C04D
:100D400080910501823078F48F5F809305010BC09C
:100D500080910501823038F081508093050103C0F5
:100D60008091050108958091050182B98091040167
:100D700085B980E0089564E670E080E090E077DA7D
:100D800016DA8FEF81B912B884B915B887B918B8D7
:100D900089EF8AB987E08BB91092BA011092B90134
:100DA0001092B801D3D98091B701811104C070DFCE
:100DB0008093B70107C0813011F46ADA03C0823032
:100DC00009F4F4DB8091AC018823E1F31092AC01CB
:100DD000EACFEE0FFF1F0024001C0BBE0790F69118
:100DE000E02D0994A29FB001B39FC001A39F700D95
:100DF000811D1124911DB29F700D811D1124911D23
:100E000008958F929F92AF92BF92CF92DF92EF920E
:100E1000FF92CF93DF93EC01688179818A819B8176
:100E2000611571058105910521F464E279ED8BE589
:100E300097E02DE133EF41E050E038D049015A010D
:100E40009B01AC01A7EAB1E44DD06B017C01ACEE93
:100E5000B4EFA501940152D0DC01CB018C0D9D1D96
:100E6000AE1DBF1DB7FF03C00197A109B04888831D
:100E70009983AA83BB839F77DF91CF91FF90EF90F7
:100E8000DF90CF90BF90AF909F908F900895B9CF93
:100E900080E091E0B6CFA0E0B0E0809300019093B5
:100EA0000101A0930201B09303010895052E97FB61
:100EB00016F400940FD057FD05D024D007FC02D0C3
:100EC00046F408C050954095309521953F4F4F4FBF
:100ED0005F4F089590958095709561957F4F8F4FE6
:100EE0009F4F08957FDFA59F900DB49F900DA49F05
:100EF000800D911D11240895B7FFF4CFF3DF821BFD
:100F0000930B0895A1E21A2EAA1BBB1BFD010DC075
:100F1000AA1FBB1FEE1FFF1FA217B307E407F507A9
:100F200020F0A21BB30BE40BF50B661F771F881F85
:100F3000991F1A9469F760957095809590959B011B
:0C0F4000AC01BD01CF010895F894FFCF73
:100F4C00010000007F01017F010000000700070085
:100F5C007FBFDFEFF7FBFDFE01020408102040808D
:100F6C0054696D65723A2000436F6E6772617475D7
:100F7C006C6174696F6E732100596F75207765729F
:100F8C0065206C6174652062792031303030206DC1
:100F9C0073206F72206D6F72652100596F75207709
:100FAC00657265206C6174652062792000596F75DB
:100FBC002077657265206561726C79203130303034
:100FCC00206D73206F72206D6F72652100596F75E3
:100FDC002077657265206561726C792062792000DA
:080FEC004C6576656C3A2000AB
:00000001FF
