:1000000045C0000060C000005EC000005CC0000091
:100010005AC0000058C0000056C0000054C0000084
:1000200052C0000050C000004EC000004CC0000094
:100030004AC00000A1C1000046C0000044C000004A
:1000400042C0000040C000003EC000003CC00000B4
:100050003AC0000038C0000036C0000034C00000C4
:1000600032C0000030C000002EC000002CC00000D4
:100070002AC0000028C0000026C0000024C00000E4
:1000800022C0000020C000001EC0000011241FBEBE
:10009000CFEFD0E4DEBFCDBF11E0A0E0B1E0E0E102
:1000A000F5E000E00BBF02C007900D92A630B1074B
:1000B000D9F721E0A6E0B1E001C01D92A331B2075B
:1000C000E1F7DDD123C29CCF813081F0E1ECF0E09B
:1000D000808188618083E2ECF0E0808186608083AB
:1000E00083E38093C4001092C5000895E9ECF0E02A
:1000F000808188618083EAECF0E080818660808383
:1001000083E38093CC001092CD000895813029F4D0
:100110008091C800882374F008958091C0008823DE
:100120008CF4A6ECB0E0E0ECF0E08C9180818823C8
:10013000E4F30895AEECB0E0E8ECF0E08C9180815F
:100140008823E4F30895613041F0E0ECF0E0908121
:1001500095FFFDCF8093C6000895E8ECF0E0908114
:1001600095FFFDCF8093CE00089518990DC021E032
:100170002093090121E030E030930801209307012A
:100180000196029740F01EC01092090110920801DA
:100190001092070108958091C80085FF16C061E0A4
:1001A00080910001D0DF8091C80086FF11C080914E
:1001B000000182B98091000180958093000180E068
:1001C00090E008C08FEF9FEF05C080E090E002C094
:1001D00080E090E02091090128B90895813041F034
:1001E000E0ECF0E080818823ECF78091C600089570
:1001F000E8ECF0E080818823ECF78091CE00089550
:1002000018990AC021E02093090121E030E03093E1
:100210000801209307010895109209011092080126
:10022000109207018130910511F13CF48F3F2FEFBF
:100230009207C1F0892B39F02DC08230910541F031
:10024000039759F027C08091C0008823ACF01DC0EF
:100250008091C00088235CF40FC08091C000882387
:100260005CF013C010920A0181E090E015C080E0BC
:100270004DDF80E090E010C080E0B0DF809312019D
:1002800080930A0182E090E007C010920A0183E0A7
:1002900090E002C08FEF9FEF20910A0122B92091D8
:1002A000090128B90895CF92DF92EF92FF921F9330
:1002B000CF93DF931092060180910B01882309F4FC
:1002C00053C080E01BE0C0911001D0911101189F34
:1002D000C00DD11D11244D815E816F81788589818A
:1002E0009A81AB81BC81481759076A077B07B0F038
:1002F0008881E985FA85082E000C990B0995888379
:1003000080910601E0911001F0911101189FE00D1C
:10031000F11D112415821682178210868091060124
:10032000E0911001F0911101189FE00DF11D1124D1
:10033000C580D680E780F084409101015091020190
:1003400060910301709104014C0D5D1D6E1D7F1DB8
:1003500045835683678370878F5F809306019091F2
:100360000B01891708F4AFCFDF91CF911F91FF9058
:10037000EF90DF90CF9008951F920F920FB60F92DB
:1003800011240BB60F922F933F934F935F936F936C
:100390007F938F939F93AF93BF93EF93FF9380913E
:1003A0000C0190910D01A0910E01B0910F010197E8
:1003B000A109B10980930C0190930D01A0930E0146
:1003C000B0930F01892B8A2B8B2B89F46CDF8091E2
:1003D000010190910201A0910301B0910401809369
:1003E0000C0190930D01A0930E01B0930F01FF91AA
:1003F000EF91BF91AF919F918F917F916F915F919D
:100400004F913F912F910F900BBE0F900FBE0F9009
:100410001F9018956093010170930201809303016E
:100420009093040160930C0170930D0180930E0171
:1004300090930F0108958BE0809381008DE790E009
:10044000909389008093880082E080936F001092DF
:100450008500109284008091010190910201A09189
:100460000301B091040180930C0190930D01A093BE
:100470000E01B0930F018FB780688FBF0895CF939F
:10048000DF93CDB7DEB766970FB6F894DEBF0FBE29
:10049000CDBF1FEF11B912B814B815B917B918B8F4
:1004A00080E012DE81E010DE82E080930B01CE015D
:1004B00001969093110180931001198388E592E0D1
:1004C000A0E0B0E08A839B83AC83BD838E839F834F
:1004D000A887B98780E091E09B878A871C8788EE90
:1004E00093E0A0E0B0E08D879E87AF87B88B898BC3
:1004F0009A8BAB8BBC8B85EB90E09E8B8D8B64E6EF
:1005000070E080E090E086DF96DFFFCFF894FFCFC9
:06051000010100000000E3
:00000001FF
