:1000000056C0000071C000006FC000006DC000004D
:100010006BC0000069C0000067C0000065C0000040
:1000200063C0000061C000005FC000005DC0000050
:100030005BC000008FC0000057C0000055C000002A
:1000400053C0000051C000004FC000004DC0000070
:100050004BC0000049C0000047C0000045C0000080
:1000600043C0000041C000003FC000003DC0000090
:100070003BC0000039C0000037C0000035C00000A0
:1000800033C0000031C000002FC000005F016401D8
:10009000B60169016E01730178017D018201890158
:1000A0008E0193019A019F01A401A901AE011124BF
:1000B0001FBECFEFD0E4DEBFCDBF11E0A0E0B1E0C6
:1000C000E0EFF4E000E00BBF02C007900D92A43017
:1000D000B107D9F721E0A4E0B1E001C01D92A03240
:1000E000B207E1F76FD102C28BCF6093000170932A
:1000F0000101809302019093030160931B017093AF
:100100001C0180931D0190931E0108958BE0809344
:1001100081008DE790E0909389008093880082E0D1
:1001200080936F00109285001092840080910001EE
:1001300090910101A0910201B091030180931B01F4
:1001400090931C01A0931D01B0931E018FB780688E
:100150008FBF08951F920F920FB60F9211248F93A5
:100160009F93AF93BF9380911B0190911C01A0912D
:100170001D01B0911E010197A109B10980931B01D6
:1001800090931C01A0931D01B0931E01892B8A2B13
:100190008B2B99F481E080931F0180910001909155
:1001A0000101A0910201B091030180931B01909382
:1001B0001C01A0931D01B0931E01BF91AF919F91AF
:1001C0008F910F900FBE0F901F901895181619065B
:1001D0005CF00895000021503109E1F74F5F5F4F57
:1001E0008417950719F4089540E050E027E033E0C4
:1001F000F1CF10988BB9119A0000119882E090E02D
:10020000E5CF089581E0F5CF0895CF93DF93EC011A
:10021000892B09F049C08FE788B90000309902C0E6
:10022000CEE0D0E0319902C0CFE0D0E0329902C0F8
:10023000C0E1D0E0339902C0C1E1D0E08FEB88B9D2
:100240000000309902C0C5E0D0E0319902C0C8E09A
:10025000D0E0329902C0CBE0D0E0339902C0CDE0CB
:10026000D0E08FED88B90000309902C0C4E0D0E042
:10027000319902C0C7E0D0E0329902C0CAE0D0E0B4
:10028000339902C0C1E0D0E08FEE88B90000309908
:1002900002C0C2E0D0E0319902C0C6E0D0E0329B9B
:1002A00062C0339B40C002C0C0E0D0E0FE01319785
:1002B000E131F10508F05AC0EA5BFF4F0EC180E35F
:1002C00080931A019FDF52C081E380931A019ADF65
:1002D0004DC082E380931A0195DF48C083E3809389
:1002E0001A0190DF43C084E380931A018BDF3EC084
:1002F00085E380931A0186DF39C086E380931A0173
:1003000081DF34C087E380931A017CDFC9E0D0E04D
:100310002DC088E380931A0175DF28C089E380939C
:100320001A0170DF23C08AE280931A016BDFCCE0F0
:10033000D0E01CC083E280931A0164DF17C081E41F
:1003400080931A015FDF12C082E480931A015ADFA2
:100350000DC083E480931A0155DF08C084E48093C4
:100360001A0150DF03C0339BDECFCCCFCE01DF912B
:10037000CF910895813118F481583BCF089581556C
:1003800038CF089584E690E021DF88E332DF86E00D
:1003900030DF8FE02EDF81E02CDF8AE090E016CFA7
:1003A0000895109A8BB9119A0000119881E090E09D
:1003B0000DCF089581E0DEDF80911A01F2DF80E049
:1003C00090E00895CF93DF9300D000D0CDB7DEB793
:1003D000D9DF8FEF81B912B884B915B890EF97B90A
:1003E0009FE098B98AB91BB8AFE0B1E0BA83A9839E
:1003F000E4E0F1E0FC83EB838C9345E050E060E0C7
:1004000070E011964D935D936D937C9314971596C0
:100410004D935D936D937C93189725E031E01A9688
:100420003C932E931997808381E090E0A0E0B0E0A8
:1004300081839283A383B48385839683A783B087C4
:100440008AED91E0928781876AE070E080E090E039
:100450004CDE5CDE7E0185E0E80EF11CDE011196CB
:100460006D01F601019111916F01D80115964D9121
:100470005D916D917C91189711968D919D910D9044
:10048000BC91A02D481759076A077B0781F4F80132
:1004900080810184F285E02D082E000C990B0995CE
:1004A000D8018C93F8011582168217821086F80104
:1004B00085819681A781B0850196A11DB11D858397
:1004C0009683A783B087CE14DF0459F680911F016D
:1004D0008823E1F310921F01C1CFEE0FFF1F00240C
:1004E000001C0BBE0790F691E02D0994F894FFCF05
:0404F0000100000007
:00000001FF
