:1000000045C0000053C0000051C000004FC00000B8
:100010004DC000004BC0000049C0000047C00000B8
:1000200045C0000043C0000041C000003FC00000C8
:100030003DC000003BC0000039C0000037C00000D8
:1000400035C0000033C0000031C000002FC00000E8
:100050002DC000002BC0000029C0000027C00000F8
:1000600025C0000023C0000021C000001FC0000008
:100070001DC000001BC0000019C0000017C0000018
:1000800015C0000013C0000011C0000011241FBEE5
:10009000CFEFD0E4DEBFCDBF21E0A0E0B1E001C0F2
:1000A0001D92A130B207E1F752D05AC0A9CF80917A
:1000B00000018230A1F028F4882349F0813059F002
:1000C00023C08430C9F0A0F08530D1F01DC081E09C
:1000D0008093000126C082E080930001089500997A
:1000E00083E080930001019984E0809300010CC0BB
:1000F00085E08093000126C085E08093000122C046
:1001000082E080930001089580910001833061F0C6
:1001100018F48130D9F405C0843069F08530B1F429
:1001200011C087E088B9089588B1893078F488B122
:100130008F5F88B9089588B1823040F088B18150CE
:1001400088B90895009B02C0019918B8089511B8A4
:100150008FEF82B987B918B810920001A8DFFECFDF
:04016000F894FFCF41
:00000001FF
