S00D000054657374322E7372656345
S113000045C0000053C0000051C000004FC00000B4
S11300104DC000004BC0000049C0000047C00000B4
S113002045C0000043C0000041C000003FC00000C4
S11300303DC000003BC0000039C0000037C00000D4
S113004035C0000033C0000031C000002FC00000E4
S11300502DC000002BC0000029C0000027C00000F4
S113006025C0000023C0000021C000001FC0000004
S11300701DC000001BC0000019C0000017C0000014
S113008015C0000013C0000011C0000011241FBEE1
S1130090CFEFD0E4DEBFCDBF21E0A0E0B1E001C0EE
S11300A01D92A130B207E1F739D041C0A9CF8091A8
S11300B00001823099F028F4882341F0813051F016
S11300C01DC0833099F08430A9F018C081E080937A
S11300D000011CC082E0809300010895009902C0D1
S11300E083E001C084E08093000108C082E0809333
S11300F00001089582E08093000108958091000139
S1130100833031F0843039F0813039F415B80895F2
S113011085E185B908958AE085B9089511B88FEF0E
S113012082B984B915B810920001C1DFFECFF894EA
S1050130FFCFFB
S9030000FC
