S01000004C45445F544553542E73726563A0
S113000045C0000060C000005EC000005CC000008D
S11300105AC0000058C0000056C0000054C0000080
S113002052C0000050C000004EC000004CC0000090
S11300304AC000006DC0000046C0000044C000007B
S113004042C0000040C000003EC000003CC00000B0
S11300503AC0000038C0000036C0000034C00000C0
S113006032C0000030C000002EC000002CC00000D0
S11300702AC0000028C0000026C0000024C00000E0
S113008022C0000020C000001EC0000011241FBEBA
S1130090CFEFD0E4DEBFCDBF11E0A0E0B1E0EEE2EF
S11300A0F2E000E00BBF02C007900D92A630B1074A
S11300B0D9F721E0A6E0B1E001C01D92AB30B20750
S11300C0E1F7A2D0B2C09CCF8BE0809381008DE792
S11300D090E0909389008093880082E080936F0081
S11300E01092850010928400809102019091030186
S11300F0A0910401B091050180930601909307013A
S1130100A0930801B09309018FB780688FBF089549
S11301101F920F920FB60F9211248F939F93AF9358
S1130120BF938091060190910701A0910801B091BD
S113013009010197A109B109809306019093070170
S1130140A0930801B0930901892B8A2B8B2B99F476
S113015081E080930A018091020190910301A091B2
S11301600401B09105018093060190930701A093C7
S11301700801B0930901BF91AF919F918F910F90A6
S11301800FBE0F901F9018956093020170930301A6
S11301908093040190930501609306017093070115
S11301A08093080190930901089529B129B129B1D7
S11301B08230910510F4009701F5809101018E3F82
S11301C0B1F480910001803849F48FE780930101F4
S11301D081E08093000180E090E00FC09FE790935E
S11301E00101880F8093000180E090E006C08695AD
S11301F080688093010180E090E02091000122B9A1
S11302002091010125B908951AB88FEF8BB981B9EE
S113021012B884B915B864E670E080E090E0B4DF09
S111022053DF80E090E0C1DFFCCFF894FFCF05
S109022E017F0100000045
S9030000FC
