S02400006A7368696E3032365F637965653030385F6C616231305F70617274322E7372656378
S113000045C0000060C000005EC000005CC000008D
S11300105AC0000058C0000056C0000054C0000080
S113002052C0000050C000004EC000004CC0000090
S11300304AC00000B1C0000046C0000044C0000037
S113004042C0000040C000003EC000003CC00000B0
S11300503AC0000038C0000036C0000034C00000C0
S113006032C0000030C000002EC000002CC00000D0
S11300702AC0000028C0000026C0000024C00000E0
S113008022C0000020C000001EC0000011241FBEBA
S1130090CFEFD0E4DEBFCDBF11E0A0E0B1E0E8E0F7
S11300A0F3E000E00BBF02C007900D92A433B10748
S11300B0D9F721E0A4E3B1E001C01D92A536B2074F
S11300C0E1F7A6D01FC19CCF181619065CF008955D
S11300D0000021503109E1F74F5F5F4F8417950706
S11300E019F4089540E050E027E033E0F1CF109890
S11300F08BB9119A0000119882E090E0E5CF089541
S113010081E0F5CF0895813118F48158F0CF089536
S11301108155EDCF089584E690E0D6DF88E3E7DFEC
S113012086E0E5DF8FE0E3DF81E0E1DF8AE090E075
S1130130CBCF0895109A8BB9119A0000119881E0E1
S113014090E0C2CF08950F931F93CF93DF93182F9E
S1130150EB01D6DF8881882351F001E0010F812F64
S1130160D2DF8991E7DF102F88818111F6CFDF91EB
S1130170CF911F910F9108956DE071E0809100017E
S1130180E2DF85B1809585B980910001815080932B
S1130190000180E090E008951F920F920FB60F9235
S11301A011248F939F93AF93BF938091600190919B
S11301B06101A0916201B09163010197A109B109A4
S11301C08093600190936101A0936201B0936301F5
S11301D0892B8A2B8B2B99F481E080936401809185
S11301E0010190910201A0910301B0910401809357
S11301F0600190936101A0936201B0936301BF9188
S1130200AF919F918F910F900FBE0F901F901895F3
S1130210CF93DF93CDB7DEB728970FB6F894DEBF40
S11302200FBECDBF78DF8FEF81B912B884B915B88E
S113023090EF97B99FE098B98AB91BB898E0E5E0C8
S1130240F1E0DE01119601900D929A95E1F7E5E552
S1130250F1E0808388EE93E0A0E0B0E081839283B4
S1130260A383B48385839683A783B0878CEB90E0C4
S1130270928781876E0189E0C80ED11CDE01119638
S11302807D01F701019111917F01D80115964D91DE
S11302905D916D917C91189711968D919D910D9022
S11302A0BC91A02D481759076A077B0781F4F80110
S11302B080810184F285E02D082E000C990B0995AC
S11302C0D8018C93F8011582168217821086F801E2
S11302D085819681A781B0850196A11DB11D858375
S11302E09683A783B0878091000181508093000199
S11302F0EC14FD0431F6809164018823E1F310923B
S10B03006401BCCFF894FFCFA7
S11303081001000000550134013F014A0120435304
S113031831323042206973204C6567656E642E2E35
S11303282E207761697420666F72206974204441B5
S107033852592100F1
S9030000FC
