:100000004CC0000067C0000065C0000063C0000075
:1000100061C000005FC000005DC000005BC0000068
:1000200059C0000057C0000055C0000053C0000078
:1000300051C000004FC000004DC000004BC0000088
:1000400049C0000047C0000045C0000043C0000098
:1000500041C000003FC000003DC000003BC00000A8
:1000600039C0000037C0000035C0000033C00000B8
:1000700031C000002FC000002DC000002BC00000C8
:1000800029C0000027C0000025C000008E0092009B
:100090009600AF00B300B700BB0011241FBECFEF26
:1000A000D0E4DEBFCDBF11E0A0E0B1E0E6ECF2E0CD
:1000B00000E00BBF02C007900D92A430B107D9F742
:1000C00021E0A4E0B1E001C01D92AB30B207E1F73E
:1000D000E0D0F7C095CFDC01FB019C9180819813A3
:1000E0000EC011969C911197818198130AC081E0EE
:1000F00012962C919281291729F080E0089580E0D2
:10010000089580E0089520910801822F90E08730C3
:100110009105A8F5FC01EA5BFF4FCAC081E080931E
:10012000080140C082E0809308013FC080B1803860
:1001300009F423E02093080180B1843009F424E01D
:100140002093080180B1823009F425E02093080152
:1001500080B1813009F426E02093080110C082E0CC
:100160008093080122C082E0809308011EC082E0D3
:10017000809308011AC082E08093080116C0809124
:100180000801833059F130F4813061F0823009F098
:100190007FC00BC0853009F440C020F1863009F4DF
:1001A00057C0089515B818B8089580910901909125
:1001B0000A01049709F06CC060E071E084E091E00E
:1001C0008ADF882309F464C010920A0110920901A1
:1001D000289B02C028980895289A089582E088B93B
:1001E0002898089523E028B98091090190910A0187
:1001F000FC01EC5FFE4F2083FC01E050FF4F2081AB
:10020000233029F010920A011092090108950196F5
:1002100090930A0180930901089524E028B9809100
:10022000090190910A01FC01EC5FFE4F2083FC0163
:10023000E050FF4F2081243029F010920A011092E3
:1002400009010895019690930A0180930901089588
:1002500025E028B98091090190910A01FC01EC5F29
:10026000FE4F2083FC01E050FF4F2081253029F014
:1002700010920A01109209010895019690930A01C3
:1002800080930901039721F410920A011092090149
:10029000089511B88FEF82B984B915B887B918B825
:1002A0001092080110920A01109209012CDFFECF72
:1002B000EE0FFF1F0024001C0BBE0790F691E02DEF
:0602C0000994F894FFCF41
:0402C6000305040523
:00000001FF
